{
    "_format": "hh-sol-artifact-1",
    "contractName": "CryptoKoi",
    "sourceName": "contracts/CryptoKoi.sol",
    "abi": [
        {
            "inputs": [
                {
                    "internalType": "string",
                    "name": "name",
                    "type": "string"
                },
                {
                    "internalType": "string",
                    "name": "symbol",
                    "type": "string"
                },
                {
                    "internalType": "string",
                    "name": "uri",
                    "type": "string"
                },
                {
                    "internalType": "uint256",
                    "name": "p",
                    "type": "uint256"
                }
            ],
            "stateMutability": "nonpayable",
            "type": "constructor"
        },
        {
            "anonymous": false,
            "inputs": [
                {
                    "indexed": true,
                    "internalType": "address",
                    "name": "owner",
                    "type": "address"
                },
                {
                    "indexed": true,
                    "internalType": "address",
                    "name": "approved",
                    "type": "address"
                },
                {
                    "indexed": true,
                    "internalType": "uint256",
                    "name": "tokenId",
                    "type": "uint256"
                }
            ],
            "name": "Approval",
            "type": "event"
        },
        {
            "anonymous": false,
            "inputs": [
                {
                    "indexed": true,
                    "internalType": "address",
                    "name": "owner",
                    "type": "address"
                },
                {
                    "indexed": true,
                    "internalType": "address",
                    "name": "operator",
                    "type": "address"
                },
                {
                    "indexed": false,
                    "internalType": "bool",
                    "name": "approved",
                    "type": "bool"
                }
            ],
            "name": "ApprovalForAll",
            "type": "event"
        },
        {
            "anonymous": false,
            "inputs": [
                {
                    "indexed": true,
                    "internalType": "address",
                    "name": "from",
                    "type": "address"
                },
                {
                    "indexed": true,
                    "internalType": "address",
                    "name": "to",
                    "type": "address"
                },
                {
                    "indexed": true,
                    "internalType": "uint256",
                    "name": "tokenId",
                    "type": "uint256"
                }
            ],
            "name": "Transfer",
            "type": "event"
        },
        {
            "inputs": [
                {
                    "internalType": "address",
                    "name": "to",
                    "type": "address"
                },
                {
                    "internalType": "uint256",
                    "name": "tokenId",
                    "type": "uint256"
                }
            ],
            "name": "approve",
            "outputs": [],
            "stateMutability": "nonpayable",
            "type": "function"
        },
        {
            "inputs": [
                {
                    "internalType": "address",
                    "name": "owner",
                    "type": "address"
                }
            ],
            "name": "balanceOf",
            "outputs": [
                {
                    "internalType": "uint256",
                    "name": "",
                    "type": "uint256"
                }
            ],
            "stateMutability": "view",
            "type": "function"
        },
        {
            "inputs": [
                {
                    "internalType": "uint256",
                    "name": "tokenId",
                    "type": "uint256"
                }
            ],
            "name": "getApproved",
            "outputs": [
                {
                    "internalType": "address",
                    "name": "",
                    "type": "address"
                }
            ],
            "stateMutability": "view",
            "type": "function"
        },
        {
            "inputs": [],
            "name": "getPrice",
            "outputs": [
                {
                    "internalType": "uint256",
                    "name": "",
                    "type": "uint256"
                }
            ],
            "stateMutability": "view",
            "type": "function"
        },
        {
            "inputs": [
                {
                    "internalType": "address",
                    "name": "owner",
                    "type": "address"
                },
                {
                    "internalType": "address",
                    "name": "operator",
                    "type": "address"
                }
            ],
            "name": "isApprovedForAll",
            "outputs": [
                {
                    "internalType": "bool",
                    "name": "",
                    "type": "bool"
                }
            ],
            "stateMutability": "view",
            "type": "function"
        },
        {
            "inputs": [],
            "name": "killSwitch",
            "outputs": [],
            "stateMutability": "nonpayable",
            "type": "function"
        },
        {
            "inputs": [],
            "name": "name",
            "outputs": [
                {
                    "internalType": "string",
                    "name": "",
                    "type": "string"
                }
            ],
            "stateMutability": "view",
            "type": "function"
        },
        {
            "inputs": [],
            "name": "owner",
            "outputs": [
                {
                    "internalType": "address payable",
                    "name": "",
                    "type": "address"
                }
            ],
            "stateMutability": "view",
            "type": "function"
        },
        {
            "inputs": [
                {
                    "internalType": "uint256",
                    "name": "tokenId",
                    "type": "uint256"
                }
            ],
            "name": "ownerOf",
            "outputs": [
                {
                    "internalType": "address",
                    "name": "",
                    "type": "address"
                }
            ],
            "stateMutability": "view",
            "type": "function"
        },
        {
            "inputs": [
                {
                    "internalType": "address",
                    "name": "account",
                    "type": "address"
                },
                {
                    "internalType": "uint256",
                    "name": "tokenId",
                    "type": "uint256"
                },
                {
                    "internalType": "bytes",
                    "name": "signature",
                    "type": "bytes"
                }
            ],
            "name": "redeem",
            "outputs": [],
            "stateMutability": "payable",
            "type": "function"
        },
        {
            "inputs": [
                {
                    "internalType": "address",
                    "name": "from",
                    "type": "address"
                },
                {
                    "internalType": "address",
                    "name": "to",
                    "type": "address"
                },
                {
                    "internalType": "uint256",
                    "name": "tokenId",
                    "type": "uint256"
                }
            ],
            "name": "safeTransferFrom",
            "outputs": [],
            "stateMutability": "nonpayable",
            "type": "function"
        },
        {
            "inputs": [
                {
                    "internalType": "address",
                    "name": "from",
                    "type": "address"
                },
                {
                    "internalType": "address",
                    "name": "to",
                    "type": "address"
                },
                {
                    "internalType": "uint256",
                    "name": "tokenId",
                    "type": "uint256"
                },
                {
                    "internalType": "bytes",
                    "name": "_data",
                    "type": "bytes"
                }
            ],
            "name": "safeTransferFrom",
            "outputs": [],
            "stateMutability": "nonpayable",
            "type": "function"
        },
        {
            "inputs": [
                {
                    "internalType": "address",
                    "name": "operator",
                    "type": "address"
                },
                {
                    "internalType": "bool",
                    "name": "approved",
                    "type": "bool"
                }
            ],
            "name": "setApprovalForAll",
            "outputs": [],
            "stateMutability": "nonpayable",
            "type": "function"
        },
        {
            "inputs": [
                {
                    "internalType": "string",
                    "name": "uri",
                    "type": "string"
                }
            ],
            "name": "setBaseURI",
            "outputs": [],
            "stateMutability": "nonpayable",
            "type": "function"
        },
        {
            "inputs": [
                {
                    "internalType": "uint256",
                    "name": "p",
                    "type": "uint256"
                }
            ],
            "name": "setPrice",
            "outputs": [],
            "stateMutability": "nonpayable",
            "type": "function"
        },
        {
            "inputs": [
                {
                    "internalType": "bytes4",
                    "name": "interfaceId",
                    "type": "bytes4"
                }
            ],
            "name": "supportsInterface",
            "outputs": [
                {
                    "internalType": "bool",
                    "name": "",
                    "type": "bool"
                }
            ],
            "stateMutability": "view",
            "type": "function"
        },
        {
            "inputs": [],
            "name": "symbol",
            "outputs": [
                {
                    "internalType": "string",
                    "name": "",
                    "type": "string"
                }
            ],
            "stateMutability": "view",
            "type": "function"
        },
        {
            "inputs": [
                {
                    "internalType": "uint256",
                    "name": "tokenId",
                    "type": "uint256"
                }
            ],
            "name": "tokenURI",
            "outputs": [
                {
                    "internalType": "string",
                    "name": "",
                    "type": "string"
                }
            ],
            "stateMutability": "view",
            "type": "function"
        },
        {
            "inputs": [
                {
                    "internalType": "address",
                    "name": "from",
                    "type": "address"
                },
                {
                    "internalType": "address",
                    "name": "to",
                    "type": "address"
                },
                {
                    "internalType": "uint256",
                    "name": "tokenId",
                    "type": "uint256"
                }
            ],
            "name": "transferFrom",
            "outputs": [],
            "stateMutability": "nonpayable",
            "type": "function"
        },
        {
            "inputs": [],
            "name": "withdrawAll",
            "outputs": [],
            "stateMutability": "nonpayable",
            "type": "function"
        }
    ],
    "bytecode": "0x60806040523480156200001157600080fd5b50604051620040cf380380620040cf833981810160405281019062000037919062000211565b8383816000908051906020019062000051929190620000d8565b5080600190805190602001906200006a929190620000d8565b50505033600660006101000a81548173ffffffffffffffffffffffffffffffffffffffff021916908373ffffffffffffffffffffffffffffffffffffffff1602179055508160079080519060200190620000c6929190620000d8565b5080600881905550505050506200045c565b828054620000e69062000367565b90600052602060002090601f0160209004810192826200010a576000855562000156565b82601f106200012557805160ff191683800117855562000156565b8280016001018555821562000156579182015b828111156200015557825182559160200191906001019062000138565b5b50905062000165919062000169565b5090565b5b80821115620001845760008160009055506001016200016a565b5090565b60006200019f6200019984620002f1565b620002c8565b905082815260208101848484011115620001b857600080fd5b620001c584828562000331565b509392505050565b600082601f830112620001df57600080fd5b8151620001f184826020860162000188565b91505092915050565b6000815190506200020b8162000442565b92915050565b600080600080608085870312156200022857600080fd5b600085015167ffffffffffffffff8111156200024357600080fd5b6200025187828801620001cd565b945050602085015167ffffffffffffffff8111156200026f57600080fd5b6200027d87828801620001cd565b935050604085015167ffffffffffffffff8111156200029b57600080fd5b620002a987828801620001cd565b9250506060620002bc87828801620001fa565b91505092959194509250565b6000620002d4620002e7565b9050620002e282826200039d565b919050565b6000604051905090565b600067ffffffffffffffff8211156200030f576200030e62000402565b5b6200031a8262000431565b9050602081019050919050565b6000819050919050565b60005b838110156200035157808201518184015260208101905062000334565b8381111562000361576000848401525b50505050565b600060028204905060018216806200038057607f821691505b60208210811415620003975762000396620003d3565b5b50919050565b620003a88262000431565b810181811067ffffffffffffffff82111715620003ca57620003c962000402565b5b80604052505050565b7f4e487b7100000000000000000000000000000000000000000000000000000000600052602260045260246000fd5b7f4e487b7100000000000000000000000000000000000000000000000000000000600052604160045260246000fd5b6000601f19601f8301169050919050565b6200044d8162000327565b81146200045957600080fd5b50565b613c63806200046c6000396000f3fe60806040526004361061011f5760003560e01c8063853828b6116100a0578063a22cb46511610064578063a22cb465146103c4578063ada14698146103ed578063b88d4fde14610404578063c87b56dd1461042d578063e985e9c51461046a5761011f565b8063853828b6146103035780638da5cb5b1461031a57806391b7f5ed1461034557806395d89b411461036e57806398d5fdca146103995761011f565b806323b872dd116100e757806323b872dd1461020e57806342842e0e1461023757806355f804b3146102605780636352211e1461028957806370a08231146102c65761011f565b806301ffc9a71461012457806306fdde0314610161578063081812fc1461018c578063095ea7b3146101c957806310badf4e146101f2575b600080fd5b34801561013057600080fd5b5061014b60048036038101906101469190612850565b6104a7565b6040516101589190612ea7565b60405180910390f35b34801561016d57600080fd5b506101766104b9565b6040516101839190612f07565b60405180910390f35b34801561019857600080fd5b506101b360048036038101906101ae91906128e7565b61054b565b6040516101c09190612e25565b60405180910390f35b3480156101d557600080fd5b506101f060048036038101906101eb91906127a8565b6105d0565b005b61020c600480360381019061020791906127e4565b6106e8565b005b34801561021a57600080fd5b50610235600480360381019061023091906126a2565b6107d3565b005b34801561024357600080fd5b5061025e600480360381019061025991906126a2565b610833565b005b34801561026c57600080fd5b50610287600480360381019061028291906128a2565b610853565b005b34801561029557600080fd5b506102b060048036038101906102ab91906128e7565b6108f9565b6040516102bd9190612e25565b60405180910390f35b3480156102d257600080fd5b506102ed60048036038101906102e8919061263d565b6109ab565b6040516102fa91906131e9565b60405180910390f35b34801561030f57600080fd5b50610318610a63565b005b34801561032657600080fd5b5061032f610c48565b60405161033c9190612e40565b60405180910390f35b34801561035157600080fd5b5061036c600480360381019061036791906128e7565b610c6e565b005b34801561037a57600080fd5b50610383610d08565b6040516103909190612f07565b60405180910390f35b3480156103a557600080fd5b506103ae610d9a565b6040516103bb91906131e9565b60405180910390f35b3480156103d057600080fd5b506103eb60048036038101906103e6919061276c565b610da4565b005b3480156103f957600080fd5b50610402610dba565b005b34801561041057600080fd5b5061042b600480360381019061042691906126f1565b610e85565b005b34801561043957600080fd5b50610454600480360381019061044f91906128e7565b610ee7565b6040516104619190612f07565b60405180910390f35b34801561047657600080fd5b50610491600480360381019061048c9190612666565b610f8e565b60405161049e9190612ea7565b60405180910390f35b60006104b282611022565b9050919050565b6060600080546104c890613442565b80601f01602080910402602001604051908101604052809291908181526020018280546104f490613442565b80156105415780601f1061051657610100808354040283529160200191610541565b820191906000526020600020905b81548152906001019060200180831161052457829003601f168201915b5050505050905090565b600061055682611104565b610595576040517f08c379a000000000000000000000000000000000000000000000000000000000815260040161058c90613149565b60405180910390fd5b6004600083815260200190815260200160002060009054906101000a900473ffffffffffffffffffffffffffffffffffffffff169050919050565b60006105db826108f9565b90508073ffffffffffffffffffffffffffffffffffffffff168373ffffffffffffffffffffffffffffffffffffffff16141561064c576040517f08c379a000000000000000000000000000000000000000000000000000000000815260040161064390613189565b60405180910390fd5b8073ffffffffffffffffffffffffffffffffffffffff1661066b611170565b73ffffffffffffffffffffffffffffffffffffffff16148061069a575061069981610694611170565b610f8e565b5b6106d9576040517f08c379a00000000000000000000000000000000000000000000000000000000081526004016106d0906130a9565b60405180910390fd5b6106e38383611178565b505050565b60085434101561072d576040517f08c379a000000000000000000000000000000000000000000000000000000000815260040161072490613089565b60405180910390fd5b61078461073a8585611231565b83838080601f016020809104026020016040519081016040528093929190818152602001838380828437600081840152601f19601f8201169050808301925050505050505061126c565b6107c3576040517f08c379a00000000000000000000000000000000000000000000000000000000081526004016107ba90613029565b60405180910390fd5b6107cd84846112d0565b50505050565b6107e46107de611170565b826112ee565b610823576040517f08c379a000000000000000000000000000000000000000000000000000000000815260040161081a906131a9565b60405180910390fd5b61082e8383836113cc565b505050565b61084e83838360405180602001604052806000815250610e85565b505050565b600660009054906101000a900473ffffffffffffffffffffffffffffffffffffffff1673ffffffffffffffffffffffffffffffffffffffff163373ffffffffffffffffffffffffffffffffffffffff16146108e3576040517f08c379a00000000000000000000000000000000000000000000000000000000081526004016108da90612f69565b60405180910390fd5b8181600791906108f4929190612435565b505050565b6000806002600084815260200190815260200160002060009054906101000a900473ffffffffffffffffffffffffffffffffffffffff169050600073ffffffffffffffffffffffffffffffffffffffff168173ffffffffffffffffffffffffffffffffffffffff1614156109a2576040517f08c379a0000000000000000000000000000000000000000000000000000000008152600401610999906130e9565b60405180910390fd5b80915050919050565b60008073ffffffffffffffffffffffffffffffffffffffff168273ffffffffffffffffffffffffffffffffffffffff161415610a1c576040517f08c379a0000000000000000000000000000000000000000000000000000000008152600401610a13906130c9565b60405180910390fd5b600360008373ffffffffffffffffffffffffffffffffffffffff1673ffffffffffffffffffffffffffffffffffffffff168152602001908152602001600020549050919050565b600660009054906101000a900473ffffffffffffffffffffffffffffffffffffffff1673ffffffffffffffffffffffffffffffffffffffff163373ffffffffffffffffffffffffffffffffffffffff1614610af3576040517f08c379a0000000000000000000000000000000000000000000000000000000008152600401610aea90612f69565b60405180910390fd5b60004790506000600660009054906101000a900473ffffffffffffffffffffffffffffffffffffffff1673ffffffffffffffffffffffffffffffffffffffff1682604051610b4090612de4565b60006040518083038185875af1925050503d8060008114610b7d576040519150601f19603f3d011682016040523d82523d6000602084013e610b82565b606091505b5050905080610bc6576040517f08c379a0000000000000000000000000000000000000000000000000000000008152600401610bbd906131c9565b60405180910390fd5b81600660009054906101000a900473ffffffffffffffffffffffffffffffffffffffff1673ffffffffffffffffffffffffffffffffffffffff16600073ffffffffffffffffffffffffffffffffffffffff167fddf252ad1be2c89b69c2b068fc378daa952ba7f163c4a11628f55a4df523b3ef60405160405180910390a45050565b600660009054906101000a900473ffffffffffffffffffffffffffffffffffffffff1681565b600660009054906101000a900473ffffffffffffffffffffffffffffffffffffffff1673ffffffffffffffffffffffffffffffffffffffff163373ffffffffffffffffffffffffffffffffffffffff1614610cfe576040517f08c379a0000000000000000000000000000000000000000000000000000000008152600401610cf590612f69565b60405180910390fd5b8060088190555050565b606060018054610d1790613442565b80601f0160208091040260200160405190810160405280929190818152602001828054610d4390613442565b8015610d905780601f10610d6557610100808354040283529160200191610d90565b820191906000526020600020905b815481529060010190602001808311610d7357829003601f168201915b5050505050905090565b6000600854905090565b610db6610daf611170565b8383611633565b5050565b600660009054906101000a900473ffffffffffffffffffffffffffffffffffffffff1673ffffffffffffffffffffffffffffffffffffffff163373ffffffffffffffffffffffffffffffffffffffff1614610e4a576040517f08c379a0000000000000000000000000000000000000000000000000000000008152600401610e4190612f69565b60405180910390fd5b600660009054906101000a900473ffffffffffffffffffffffffffffffffffffffff1673ffffffffffffffffffffffffffffffffffffffff16ff5b610e96610e90611170565b836112ee565b610ed5576040517f08c379a0000000000000000000000000000000000000000000000000000000008152600401610ecc906131a9565b60405180910390fd5b610ee1848484846117a0565b50505050565b6060610ef282611104565b610f31576040517f08c379a0000000000000000000000000000000000000000000000000000000008152600401610f2890613169565b60405180910390fd5b6000610f3b6117fc565b90506000815111610f5b5760405180602001604052806000815250610f86565b80610f658461188e565b604051602001610f76929190612d9a565b6040516020818303038152906040525b915050919050565b6000600560008473ffffffffffffffffffffffffffffffffffffffff1673ffffffffffffffffffffffffffffffffffffffff16815260200190815260200160002060008373ffffffffffffffffffffffffffffffffffffffff1673ffffffffffffffffffffffffffffffffffffffff16815260200190815260200160002060009054906101000a900460ff16905092915050565b60007f80ac58cd000000000000000000000000000000000000000000000000000000007bffffffffffffffffffffffffffffffffffffffffffffffffffffffff1916827bffffffffffffffffffffffffffffffffffffffffffffffffffffffff191614806110ed57507f5b5e139f000000000000000000000000000000000000000000000000000000007bffffffffffffffffffffffffffffffffffffffffffffffffffffffff1916827bffffffffffffffffffffffffffffffffffffffffffffffffffffffff1916145b806110fd57506110fc82611a3b565b5b9050919050565b60008073ffffffffffffffffffffffffffffffffffffffff166002600084815260200190815260200160002060009054906101000a900473ffffffffffffffffffffffffffffffffffffffff1673ffffffffffffffffffffffffffffffffffffffff1614159050919050565b600033905090565b816004600083815260200190815260200160002060006101000a81548173ffffffffffffffffffffffffffffffffffffffff021916908373ffffffffffffffffffffffffffffffffffffffff160217905550808273ffffffffffffffffffffffffffffffffffffffff166111eb836108f9565b73ffffffffffffffffffffffffffffffffffffffff167f8c5be1e5ebec7d5bd14f71427d1e84f3dd0314c0f7b2291e5b200ac8c7c3b92560405160405180910390a45050565b60006112648284604051602001611249929190612df9565b60405160208183030381529060405280519060200120611aa5565b905092915050565b60006112788383611ad5565b73ffffffffffffffffffffffffffffffffffffffff16600660009054906101000a900473ffffffffffffffffffffffffffffffffffffffff1673ffffffffffffffffffffffffffffffffffffffff1614905092915050565b6112ea828260405180602001604052806000815250611afc565b5050565b60006112f982611104565b611338576040517f08c379a000000000000000000000000000000000000000000000000000000000815260040161132f90613069565b60405180910390fd5b6000611343836108f9565b90508073ffffffffffffffffffffffffffffffffffffffff168473ffffffffffffffffffffffffffffffffffffffff1614806113b257508373ffffffffffffffffffffffffffffffffffffffff1661139a8461054b565b73ffffffffffffffffffffffffffffffffffffffff16145b806113c357506113c28185610f8e565b5b91505092915050565b8273ffffffffffffffffffffffffffffffffffffffff166113ec826108f9565b73ffffffffffffffffffffffffffffffffffffffff1614611442576040517f08c379a000000000000000000000000000000000000000000000000000000000815260040161143990612fa9565b60405180910390fd5b600073ffffffffffffffffffffffffffffffffffffffff168273ffffffffffffffffffffffffffffffffffffffff1614156114b2576040517f08c379a00000000000000000000000000000000000000000000000000000000081526004016114a990612fe9565b60405180910390fd5b6114bd838383611b57565b6114c8600082611178565b6001600360008573ffffffffffffffffffffffffffffffffffffffff1673ffffffffffffffffffffffffffffffffffffffff1681526020019081526020016000206000828254611518919061332f565b925050819055506001600360008473ffffffffffffffffffffffffffffffffffffffff1673ffffffffffffffffffffffffffffffffffffffff168152602001908152602001600020600082825461156f91906132a8565b92505081905550816002600083815260200190815260200160002060006101000a81548173ffffffffffffffffffffffffffffffffffffffff021916908373ffffffffffffffffffffffffffffffffffffffff160217905550808273ffffffffffffffffffffffffffffffffffffffff168473ffffffffffffffffffffffffffffffffffffffff167fddf252ad1be2c89b69c2b068fc378daa952ba7f163c4a11628f55a4df523b3ef60405160405180910390a461162e838383611b5c565b505050565b8173ffffffffffffffffffffffffffffffffffffffff168373ffffffffffffffffffffffffffffffffffffffff1614156116a2576040517f08c379a000000000000000000000000000000000000000000000000000000000815260040161169990613009565b60405180910390fd5b80600560008573ffffffffffffffffffffffffffffffffffffffff1673ffffffffffffffffffffffffffffffffffffffff16815260200190815260200160002060008473ffffffffffffffffffffffffffffffffffffffff1673ffffffffffffffffffffffffffffffffffffffff16815260200190815260200160002060006101000a81548160ff0219169083151502179055508173ffffffffffffffffffffffffffffffffffffffff168373ffffffffffffffffffffffffffffffffffffffff167f17307eab39ab6107e8899845ad3d59bd9653f200f220920489ca2b5937696c31836040516117939190612ea7565b60405180910390a3505050565b6117ab8484846113cc565b6117b784848484611b61565b6117f6576040517f08c379a00000000000000000000000000000000000000000000000000000000081526004016117ed90612f89565b60405180910390fd5b50505050565b60606007805461180b90613442565b80601f016020809104026020016040519081016040528092919081815260200182805461183790613442565b80156118845780601f1061185957610100808354040283529160200191611884565b820191906000526020600020905b81548152906001019060200180831161186757829003601f168201915b5050505050905090565b606060008214156118d6576040518060400160405280600181526020017f30000000000000000000000000000000000000000000000000000000000000008152509050611a36565b600082905060005b600082146119085780806118f1906134a5565b915050600a8261190191906132fe565b91506118de565b60008167ffffffffffffffff81111561194a577f4e487b7100000000000000000000000000000000000000000000000000000000600052604160045260246000fd5b6040519080825280601f01601f19166020018201604052801561197c5781602001600182028036833780820191505090505b5090505b60008514611a2f57600182611995919061332f565b9150600a856119a49190613526565b60306119b091906132a8565b60f81b8183815181106119ec577f4e487b7100000000000000000000000000000000000000000000000000000000600052603260045260246000fd5b60200101907effffffffffffffffffffffffffffffffffffffffffffffffffffffffffffff1916908160001a905350600a85611a2891906132fe565b9450611980565b8093505050505b919050565b60007f01ffc9a7000000000000000000000000000000000000000000000000000000007bffffffffffffffffffffffffffffffffffffffffffffffffffffffff1916827bffffffffffffffffffffffffffffffffffffffffffffffffffffffff1916149050919050565b600081604051602001611ab89190612dbe565b604051602081830303815290604052805190602001209050919050565b6000806000611ae48585611cf8565b91509150611af181611d7b565b819250505092915050565b611b0683836120cc565b611b136000848484611b61565b611b52576040517f08c379a0000000000000000000000000000000000000000000000000000000008152600401611b4990612f89565b60405180910390fd5b505050565b505050565b505050565b6000611b828473ffffffffffffffffffffffffffffffffffffffff166122a6565b15611ceb578373ffffffffffffffffffffffffffffffffffffffff1663150b7a02611bab611170565b8786866040518563ffffffff1660e01b8152600401611bcd9493929190612e5b565b602060405180830381600087803b158015611be757600080fd5b505af1925050508015611c1857506040513d601f19601f82011682018060405250810190611c159190612879565b60015b611c9b573d8060008114611c48576040519150601f19603f3d011682016040523d82523d6000602084013e611c4d565b606091505b50600081511415611c93576040517f08c379a0000000000000000000000000000000000000000000000000000000008152600401611c8a90612f89565b60405180910390fd5b805181602001fd5b63150b7a0260e01b7bffffffffffffffffffffffffffffffffffffffffffffffffffffffff1916817bffffffffffffffffffffffffffffffffffffffffffffffffffffffff191614915050611cf0565b600190505b949350505050565b600080604183511415611d3a5760008060006020860151925060408601519150606086015160001a9050611d2e878285856122c9565b94509450505050611d74565b604083511415611d6b576000806020850151915060408501519050611d608683836123d6565b935093505050611d74565b60006002915091505b9250929050565b60006004811115611db5577f4e487b7100000000000000000000000000000000000000000000000000000000600052602160045260246000fd5b816004811115611dee577f4e487b7100000000000000000000000000000000000000000000000000000000600052602160045260246000fd5b1415611df9576120c9565b60016004811115611e33577f4e487b7100000000000000000000000000000000000000000000000000000000600052602160045260246000fd5b816004811115611e6c577f4e487b7100000000000000000000000000000000000000000000000000000000600052602160045260246000fd5b1415611ead576040517f08c379a0000000000000000000000000000000000000000000000000000000008152600401611ea490612f29565b60405180910390fd5b60026004811115611ee7577f4e487b7100000000000000000000000000000000000000000000000000000000600052602160045260246000fd5b816004811115611f20577f4e487b7100000000000000000000000000000000000000000000000000000000600052602160045260246000fd5b1415611f61576040517f08c379a0000000000000000000000000000000000000000000000000000000008152600401611f5890612f49565b60405180910390fd5b60036004811115611f9b577f4e487b7100000000000000000000000000000000000000000000000000000000600052602160045260246000fd5b816004811115611fd4577f4e487b7100000000000000000000000000000000000000000000000000000000600052602160045260246000fd5b1415612015576040517f08c379a000000000000000000000000000000000000000000000000000000000815260040161200c90613049565b60405180910390fd5b60048081111561204e577f4e487b7100000000000000000000000000000000000000000000000000000000600052602160045260246000fd5b816004811115612087577f4e487b7100000000000000000000000000000000000000000000000000000000600052602160045260246000fd5b14156120c8576040517f08c379a00000000000000000000000000000000000000000000000000000000081526004016120bf90613109565b60405180910390fd5b5b50565b600073ffffffffffffffffffffffffffffffffffffffff168273ffffffffffffffffffffffffffffffffffffffff16141561213c576040517f08c379a000000000000000000000000000000000000000000000000000000000815260040161213390613129565b60405180910390fd5b61214581611104565b15612185576040517f08c379a000000000000000000000000000000000000000000000000000000000815260040161217c90612fc9565b60405180910390fd5b61219160008383611b57565b6001600360008473ffffffffffffffffffffffffffffffffffffffff1673ffffffffffffffffffffffffffffffffffffffff16815260200190815260200160002060008282546121e191906132a8565b92505081905550816002600083815260200190815260200160002060006101000a81548173ffffffffffffffffffffffffffffffffffffffff021916908373ffffffffffffffffffffffffffffffffffffffff160217905550808273ffffffffffffffffffffffffffffffffffffffff16600073ffffffffffffffffffffffffffffffffffffffff167fddf252ad1be2c89b69c2b068fc378daa952ba7f163c4a11628f55a4df523b3ef60405160405180910390a46122a260008383611b5c565b5050565b6000808273ffffffffffffffffffffffffffffffffffffffff163b119050919050565b6000807f7fffffffffffffffffffffffffffffff5d576e7357a4501ddfe92f46681b20a08360001c11156123045760006003915091506123cd565b601b8560ff161415801561231c5750601c8560ff1614155b1561232e5760006004915091506123cd565b6000600187878787604051600081526020016040526040516123539493929190612ec2565b6020604051602081039080840390855afa158015612375573d6000803e3d6000fd5b505050602060405103519050600073ffffffffffffffffffffffffffffffffffffffff168173ffffffffffffffffffffffffffffffffffffffff1614156123c4576000600192509250506123cd565b80600092509250505b94509492505050565b60008060007f7fffffffffffffffffffffffffffffffffffffffffffffffffffffffffffffff60001b841690506000601b60ff8660001c901c61241991906132a8565b9050612427878288856122c9565b935093505050935093915050565b82805461244190613442565b90600052602060002090601f01602090048101928261246357600085556124aa565b82601f1061247c57803560ff19168380011785556124aa565b828001600101855582156124aa579182015b828111156124a957823582559160200191906001019061248e565b5b5090506124b791906124bb565b5090565b5b808211156124d45760008160009055506001016124bc565b5090565b60006124eb6124e684613229565b613204565b90508281526020810184848401111561250357600080fd5b61250e848285613400565b509392505050565b60008135905061252581613bd1565b92915050565b60008135905061253a81613be8565b92915050565b60008135905061254f81613bff565b92915050565b60008151905061256481613bff565b92915050565b60008083601f84011261257c57600080fd5b8235905067ffffffffffffffff81111561259557600080fd5b6020830191508360018202830111156125ad57600080fd5b9250929050565b600082601f8301126125c557600080fd5b81356125d58482602086016124d8565b91505092915050565b60008083601f8401126125f057600080fd5b8235905067ffffffffffffffff81111561260957600080fd5b60208301915083600182028301111561262157600080fd5b9250929050565b60008135905061263781613c16565b92915050565b60006020828403121561264f57600080fd5b600061265d84828501612516565b91505092915050565b6000806040838503121561267957600080fd5b600061268785828601612516565b925050602061269885828601612516565b9150509250929050565b6000806000606084860312156126b757600080fd5b60006126c586828701612516565b93505060206126d686828701612516565b92505060406126e786828701612628565b9150509250925092565b6000806000806080858703121561270757600080fd5b600061271587828801612516565b945050602061272687828801612516565b935050604061273787828801612628565b925050606085013567ffffffffffffffff81111561275457600080fd5b612760878288016125b4565b91505092959194509250565b6000806040838503121561277f57600080fd5b600061278d85828601612516565b925050602061279e8582860161252b565b9150509250929050565b600080604083850312156127bb57600080fd5b60006127c985828601612516565b92505060206127da85828601612628565b9150509250929050565b600080600080606085870312156127fa57600080fd5b600061280887828801612516565b945050602061281987828801612628565b935050604085013567ffffffffffffffff81111561283657600080fd5b6128428782880161256a565b925092505092959194509250565b60006020828403121561286257600080fd5b600061287084828501612540565b91505092915050565b60006020828403121561288b57600080fd5b600061289984828501612555565b91505092915050565b600080602083850312156128b557600080fd5b600083013567ffffffffffffffff8111156128cf57600080fd5b6128db858286016125de565b92509250509250929050565b6000602082840312156128f957600080fd5b600061290784828501612628565b91505092915050565b61291981613375565b82525050565b61292881613363565b82525050565b61293f61293a82613363565b6134ee565b82525050565b61294e81613387565b82525050565b61295d81613393565b82525050565b61297461296f82613393565b613500565b82525050565b60006129858261325a565b61298f8185613270565b935061299f81856020860161340f565b6129a881613613565b840191505092915050565b60006129be82613265565b6129c8818561328c565b93506129d881856020860161340f565b6129e181613613565b840191505092915050565b60006129f782613265565b612a01818561329d565b9350612a1181856020860161340f565b80840191505092915050565b6000612a2a60188361328c565b9150612a3582613631565b602082019050919050565b6000612a4d601f8361328c565b9150612a588261365a565b602082019050919050565b6000612a70601c8361329d565b9150612a7b82613683565b601c82019050919050565b6000612a9360148361328c565b9150612a9e826136ac565b602082019050919050565b6000612ab660328361328c565b9150612ac1826136d5565b604082019050919050565b6000612ad960258361328c565b9150612ae482613724565b604082019050919050565b6000612afc601c8361328c565b9150612b0782613773565b602082019050919050565b6000612b1f60248361328c565b9150612b2a8261379c565b604082019050919050565b6000612b4260198361328c565b9150612b4d826137eb565b602082019050919050565b6000612b6560118361328c565b9150612b7082613814565b602082019050919050565b6000612b8860228361328c565b9150612b938261383d565b604082019050919050565b6000612bab602c8361328c565b9150612bb68261388c565b604082019050919050565b6000612bce60128361328c565b9150612bd9826138db565b602082019050919050565b6000612bf160388361328c565b9150612bfc82613904565b604082019050919050565b6000612c14602a8361328c565b9150612c1f82613953565b604082019050919050565b6000612c3760298361328c565b9150612c42826139a2565b604082019050919050565b6000612c5a60228361328c565b9150612c65826139f1565b604082019050919050565b6000612c7d60208361328c565b9150612c8882613a40565b602082019050919050565b6000612ca0602c8361328c565b9150612cab82613a69565b604082019050919050565b6000612cc3602f8361328c565b9150612cce82613ab8565b604082019050919050565b6000612ce660218361328c565b9150612cf182613b07565b604082019050919050565b6000612d09600083613281565b9150612d1482613b56565b600082019050919050565b6000612d2c60318361328c565b9150612d3782613b59565b604082019050919050565b6000612d4f601c8361328c565b9150612d5a82613ba8565b602082019050919050565b612d6e816133e9565b82525050565b612d85612d80826133e9565b61351c565b82525050565b612d94816133f3565b82525050565b6000612da682856129ec565b9150612db282846129ec565b91508190509392505050565b6000612dc982612a63565b9150612dd58284612963565b60208201915081905092915050565b6000612def82612cfc565b9150819050919050565b6000612e058285612d74565b602082019150612e15828461292e565b6014820191508190509392505050565b6000602082019050612e3a600083018461291f565b92915050565b6000602082019050612e556000830184612910565b92915050565b6000608082019050612e70600083018761291f565b612e7d602083018661291f565b612e8a6040830185612d65565b8181036060830152612e9c818461297a565b905095945050505050565b6000602082019050612ebc6000830184612945565b92915050565b6000608082019050612ed76000830187612954565b612ee46020830186612d8b565b612ef16040830185612954565b612efe6060830184612954565b95945050505050565b60006020820190508181036000830152612f2181846129b3565b905092915050565b60006020820190508181036000830152612f4281612a1d565b9050919050565b60006020820190508181036000830152612f6281612a40565b9050919050565b60006020820190508181036000830152612f8281612a86565b9050919050565b60006020820190508181036000830152612fa281612aa9565b9050919050565b60006020820190508181036000830152612fc281612acc565b9050919050565b60006020820190508181036000830152612fe281612aef565b9050919050565b6000602082019050818103600083015261300281612b12565b9050919050565b6000602082019050818103600083015261302281612b35565b9050919050565b6000602082019050818103600083015261304281612b58565b9050919050565b6000602082019050818103600083015261306281612b7b565b9050919050565b6000602082019050818103600083015261308281612b9e565b9050919050565b600060208201905081810360008301526130a281612bc1565b9050919050565b600060208201905081810360008301526130c281612be4565b9050919050565b600060208201905081810360008301526130e281612c07565b9050919050565b6000602082019050818103600083015261310281612c2a565b9050919050565b6000602082019050818103600083015261312281612c4d565b9050919050565b6000602082019050818103600083015261314281612c70565b9050919050565b6000602082019050818103600083015261316281612c93565b9050919050565b6000602082019050818103600083015261318281612cb6565b9050919050565b600060208201905081810360008301526131a281612cd9565b9050919050565b600060208201905081810360008301526131c281612d1f565b9050919050565b600060208201905081810360008301526131e281612d42565b9050919050565b60006020820190506131fe6000830184612d65565b92915050565b600061320e61321f565b905061321a8282613474565b919050565b6000604051905090565b600067ffffffffffffffff821115613244576132436135e4565b5b61324d82613613565b9050602081019050919050565b600081519050919050565b600081519050919050565b600082825260208201905092915050565b600081905092915050565b600082825260208201905092915050565b600081905092915050565b60006132b3826133e9565b91506132be836133e9565b9250827fffffffffffffffffffffffffffffffffffffffffffffffffffffffffffffffff038211156132f3576132f2613557565b5b828201905092915050565b6000613309826133e9565b9150613314836133e9565b92508261332457613323613586565b5b828204905092915050565b600061333a826133e9565b9150613345836133e9565b92508282101561335857613357613557565b5b828203905092915050565b600061336e826133c9565b9050919050565b6000613380826133c9565b9050919050565b60008115159050919050565b6000819050919050565b60007fffffffff0000000000000000000000000000000000000000000000000000000082169050919050565b600073ffffffffffffffffffffffffffffffffffffffff82169050919050565b6000819050919050565b600060ff82169050919050565b82818337600083830152505050565b60005b8381101561342d578082015181840152602081019050613412565b8381111561343c576000848401525b50505050565b6000600282049050600182168061345a57607f821691505b6020821081141561346e5761346d6135b5565b5b50919050565b61347d82613613565b810181811067ffffffffffffffff8211171561349c5761349b6135e4565b5b80604052505050565b60006134b0826133e9565b91507fffffffffffffffffffffffffffffffffffffffffffffffffffffffffffffffff8214156134e3576134e2613557565b5b600182019050919050565b60006134f98261350a565b9050919050565b6000819050919050565b600061351582613624565b9050919050565b6000819050919050565b6000613531826133e9565b915061353c836133e9565b92508261354c5761354b613586565b5b828206905092915050565b7f4e487b7100000000000000000000000000000000000000000000000000000000600052601160045260246000fd5b7f4e487b7100000000000000000000000000000000000000000000000000000000600052601260045260246000fd5b7f4e487b7100000000000000000000000000000000000000000000000000000000600052602260045260246000fd5b7f4e487b7100000000000000000000000000000000000000000000000000000000600052604160045260246000fd5b6000601f19601f8301169050919050565b60008160601b9050919050565b7f45434453413a20696e76616c6964207369676e61747572650000000000000000600082015250565b7f45434453413a20696e76616c6964207369676e6174757265206c656e67746800600082015250565b7f19457468657265756d205369676e6564204d6573736167653a0a333200000000600082015250565b7f4f776e65722070726976696c656765206f6e6c79000000000000000000000000600082015250565b7f4552433732313a207472616e7366657220746f206e6f6e20455243373231526560008201527f63656976657220696d706c656d656e7465720000000000000000000000000000602082015250565b7f4552433732313a207472616e736665722066726f6d20696e636f72726563742060008201527f6f776e6572000000000000000000000000000000000000000000000000000000602082015250565b7f4552433732313a20746f6b656e20616c7265616479206d696e74656400000000600082015250565b7f4552433732313a207472616e7366657220746f20746865207a65726f2061646460008201527f7265737300000000000000000000000000000000000000000000000000000000602082015250565b7f4552433732313a20617070726f766520746f2063616c6c657200000000000000600082015250565b7f496e76616c6964207369676e6174757265000000000000000000000000000000600082015250565b7f45434453413a20696e76616c6964207369676e6174757265202773272076616c60008201527f7565000000000000000000000000000000000000000000000000000000000000602082015250565b7f4552433732313a206f70657261746f7220717565727920666f72206e6f6e657860008201527f697374656e7420746f6b656e0000000000000000000000000000000000000000602082015250565b7f496e73756666696369656e742066756e64730000000000000000000000000000600082015250565b7f4552433732313a20617070726f76652063616c6c6572206973206e6f74206f7760008201527f6e6572206e6f7220617070726f76656420666f7220616c6c0000000000000000602082015250565b7f4552433732313a2062616c616e636520717565727920666f7220746865207a6560008201527f726f206164647265737300000000000000000000000000000000000000000000602082015250565b7f4552433732313a206f776e657220717565727920666f72206e6f6e657869737460008201527f656e7420746f6b656e0000000000000000000000000000000000000000000000602082015250565b7f45434453413a20696e76616c6964207369676e6174757265202776272076616c60008201527f7565000000000000000000000000000000000000000000000000000000000000602082015250565b7f4552433732313a206d696e7420746f20746865207a65726f2061646472657373600082015250565b7f4552433732313a20617070726f76656420717565727920666f72206e6f6e657860008201527f697374656e7420746f6b656e0000000000000000000000000000000000000000602082015250565b7f4552433732314d657461646174613a2055524920717565727920666f72206e6f60008201527f6e6578697374656e7420746f6b656e0000000000000000000000000000000000602082015250565b7f4552433732313a20617070726f76616c20746f2063757272656e74206f776e6560008201527f7200000000000000000000000000000000000000000000000000000000000000602082015250565b50565b7f4552433732313a207472616e736665722063616c6c6572206973206e6f74206f60008201527f776e6572206e6f7220617070726f766564000000000000000000000000000000602082015250565b7f7769746864726177416c6c3a205472616e73666572206661696c656400000000600082015250565b613bda81613363565b8114613be557600080fd5b50565b613bf181613387565b8114613bfc57600080fd5b50565b613c088161339d565b8114613c1357600080fd5b50565b613c1f816133e9565b8114613c2a57600080fd5b5056fea26469706673582212203878926c385e439b728a52b4fa63b7279fd0963d6be218c0bee149234425e84364736f6c63430008010033",
    "linkReferences": {},
    "deployedLinkReferences": {}
}