{
    "_format": "hh-sol-artifact-1",
    "contractName": "CryptoKoi",
    "sourceName": "contracts/CryptoKoi.sol",
    "abi": [
        {
            "inputs": [
                {
                    "internalType": "string",
                    "name": "name",
                    "type": "string"
                },
                {
                    "internalType": "string",
                    "name": "symbol",
                    "type": "string"
                }
            ],
            "stateMutability": "nonpayable",
            "type": "constructor"
        },
        {
            "anonymous": false,
            "inputs": [
                {
                    "indexed": true,
                    "internalType": "address",
                    "name": "owner",
                    "type": "address"
                },
                {
                    "indexed": true,
                    "internalType": "address",
                    "name": "approved",
                    "type": "address"
                },
                {
                    "indexed": true,
                    "internalType": "uint256",
                    "name": "tokenId",
                    "type": "uint256"
                }
            ],
            "name": "Approval",
            "type": "event"
        },
        {
            "anonymous": false,
            "inputs": [
                {
                    "indexed": true,
                    "internalType": "address",
                    "name": "owner",
                    "type": "address"
                },
                {
                    "indexed": true,
                    "internalType": "address",
                    "name": "operator",
                    "type": "address"
                },
                {
                    "indexed": false,
                    "internalType": "bool",
                    "name": "approved",
                    "type": "bool"
                }
            ],
            "name": "ApprovalForAll",
            "type": "event"
        },
        {
            "anonymous": false,
            "inputs": [
                {
                    "indexed": true,
                    "internalType": "bytes32",
                    "name": "role",
                    "type": "bytes32"
                },
                {
                    "indexed": true,
                    "internalType": "bytes32",
                    "name": "previousAdminRole",
                    "type": "bytes32"
                },
                {
                    "indexed": true,
                    "internalType": "bytes32",
                    "name": "newAdminRole",
                    "type": "bytes32"
                }
            ],
            "name": "RoleAdminChanged",
            "type": "event"
        },
        {
            "anonymous": false,
            "inputs": [
                {
                    "indexed": true,
                    "internalType": "bytes32",
                    "name": "role",
                    "type": "bytes32"
                },
                {
                    "indexed": true,
                    "internalType": "address",
                    "name": "account",
                    "type": "address"
                },
                {
                    "indexed": true,
                    "internalType": "address",
                    "name": "sender",
                    "type": "address"
                }
            ],
            "name": "RoleGranted",
            "type": "event"
        },
        {
            "anonymous": false,
            "inputs": [
                {
                    "indexed": true,
                    "internalType": "bytes32",
                    "name": "role",
                    "type": "bytes32"
                },
                {
                    "indexed": true,
                    "internalType": "address",
                    "name": "account",
                    "type": "address"
                },
                {
                    "indexed": true,
                    "internalType": "address",
                    "name": "sender",
                    "type": "address"
                }
            ],
            "name": "RoleRevoked",
            "type": "event"
        },
        {
            "anonymous": false,
            "inputs": [
                {
                    "indexed": true,
                    "internalType": "address",
                    "name": "from",
                    "type": "address"
                },
                {
                    "indexed": true,
                    "internalType": "address",
                    "name": "to",
                    "type": "address"
                },
                {
                    "indexed": true,
                    "internalType": "uint256",
                    "name": "tokenId",
                    "type": "uint256"
                }
            ],
            "name": "Transfer",
            "type": "event"
        },
        {
            "inputs": [],
            "name": "DEFAULT_ADMIN_ROLE",
            "outputs": [
                {
                    "internalType": "bytes32",
                    "name": "",
                    "type": "bytes32"
                }
            ],
            "stateMutability": "view",
            "type": "function"
        },
        {
            "inputs": [
                {
                    "internalType": "address",
                    "name": "to",
                    "type": "address"
                },
                {
                    "internalType": "uint256",
                    "name": "tokenId",
                    "type": "uint256"
                }
            ],
            "name": "approve",
            "outputs": [],
            "stateMutability": "nonpayable",
            "type": "function"
        },
        {
            "inputs": [
                {
                    "internalType": "address",
                    "name": "owner",
                    "type": "address"
                }
            ],
            "name": "balanceOf",
            "outputs": [
                {
                    "internalType": "uint256",
                    "name": "",
                    "type": "uint256"
                }
            ],
            "stateMutability": "view",
            "type": "function"
        },
        {
            "inputs": [
                {
                    "internalType": "uint256",
                    "name": "tokenId",
                    "type": "uint256"
                }
            ],
            "name": "getApproved",
            "outputs": [
                {
                    "internalType": "address",
                    "name": "",
                    "type": "address"
                }
            ],
            "stateMutability": "view",
            "type": "function"
        },
        {
            "inputs": [
                {
                    "internalType": "bytes32",
                    "name": "role",
                    "type": "bytes32"
                }
            ],
            "name": "getRoleAdmin",
            "outputs": [
                {
                    "internalType": "bytes32",
                    "name": "",
                    "type": "bytes32"
                }
            ],
            "stateMutability": "view",
            "type": "function"
        },
        {
            "inputs": [
                {
                    "internalType": "bytes32",
                    "name": "role",
                    "type": "bytes32"
                },
                {
                    "internalType": "address",
                    "name": "account",
                    "type": "address"
                }
            ],
            "name": "grantRole",
            "outputs": [],
            "stateMutability": "nonpayable",
            "type": "function"
        },
        {
            "inputs": [
                {
                    "internalType": "bytes32",
                    "name": "role",
                    "type": "bytes32"
                },
                {
                    "internalType": "address",
                    "name": "account",
                    "type": "address"
                }
            ],
            "name": "hasRole",
            "outputs": [
                {
                    "internalType": "bool",
                    "name": "",
                    "type": "bool"
                }
            ],
            "stateMutability": "view",
            "type": "function"
        },
        {
            "inputs": [
                {
                    "internalType": "address",
                    "name": "owner",
                    "type": "address"
                },
                {
                    "internalType": "address",
                    "name": "operator",
                    "type": "address"
                }
            ],
            "name": "isApprovedForAll",
            "outputs": [
                {
                    "internalType": "bool",
                    "name": "",
                    "type": "bool"
                }
            ],
            "stateMutability": "view",
            "type": "function"
        },
        {
            "inputs": [],
            "name": "name",
            "outputs": [
                {
                    "internalType": "string",
                    "name": "",
                    "type": "string"
                }
            ],
            "stateMutability": "view",
            "type": "function"
        },
        {
            "inputs": [
                {
                    "internalType": "uint256",
                    "name": "tokenId",
                    "type": "uint256"
                }
            ],
            "name": "ownerOf",
            "outputs": [
                {
                    "internalType": "address",
                    "name": "",
                    "type": "address"
                }
            ],
            "stateMutability": "view",
            "type": "function"
        },
        {
            "inputs": [
                {
                    "internalType": "address",
                    "name": "account",
                    "type": "address"
                },
                {
                    "internalType": "uint256",
                    "name": "tokenId",
                    "type": "uint256"
                },
                {
                    "internalType": "bytes",
                    "name": "signature",
                    "type": "bytes"
                }
            ],
            "name": "redeem",
            "outputs": [],
            "stateMutability": "nonpayable",
            "type": "function"
        },
        {
            "inputs": [
                {
                    "internalType": "bytes32",
                    "name": "role",
                    "type": "bytes32"
                },
                {
                    "internalType": "address",
                    "name": "account",
                    "type": "address"
                }
            ],
            "name": "renounceRole",
            "outputs": [],
            "stateMutability": "nonpayable",
            "type": "function"
        },
        {
            "inputs": [
                {
                    "internalType": "bytes32",
                    "name": "role",
                    "type": "bytes32"
                },
                {
                    "internalType": "address",
                    "name": "account",
                    "type": "address"
                }
            ],
            "name": "revokeRole",
            "outputs": [],
            "stateMutability": "nonpayable",
            "type": "function"
        },
        {
            "inputs": [
                {
                    "internalType": "address",
                    "name": "from",
                    "type": "address"
                },
                {
                    "internalType": "address",
                    "name": "to",
                    "type": "address"
                },
                {
                    "internalType": "uint256",
                    "name": "tokenId",
                    "type": "uint256"
                }
            ],
            "name": "safeTransferFrom",
            "outputs": [],
            "stateMutability": "nonpayable",
            "type": "function"
        },
        {
            "inputs": [
                {
                    "internalType": "address",
                    "name": "from",
                    "type": "address"
                },
                {
                    "internalType": "address",
                    "name": "to",
                    "type": "address"
                },
                {
                    "internalType": "uint256",
                    "name": "tokenId",
                    "type": "uint256"
                },
                {
                    "internalType": "bytes",
                    "name": "_data",
                    "type": "bytes"
                }
            ],
            "name": "safeTransferFrom",
            "outputs": [],
            "stateMutability": "nonpayable",
            "type": "function"
        },
        {
            "inputs": [
                {
                    "internalType": "address",
                    "name": "operator",
                    "type": "address"
                },
                {
                    "internalType": "bool",
                    "name": "approved",
                    "type": "bool"
                }
            ],
            "name": "setApprovalForAll",
            "outputs": [],
            "stateMutability": "nonpayable",
            "type": "function"
        },
        {
            "inputs": [
                {
                    "internalType": "bytes4",
                    "name": "interfaceId",
                    "type": "bytes4"
                }
            ],
            "name": "supportsInterface",
            "outputs": [
                {
                    "internalType": "bool",
                    "name": "",
                    "type": "bool"
                }
            ],
            "stateMutability": "view",
            "type": "function"
        },
        {
            "inputs": [],
            "name": "symbol",
            "outputs": [
                {
                    "internalType": "string",
                    "name": "",
                    "type": "string"
                }
            ],
            "stateMutability": "view",
            "type": "function"
        },
        {
            "inputs": [
                {
                    "internalType": "uint256",
                    "name": "tokenId",
                    "type": "uint256"
                }
            ],
            "name": "tokenURI",
            "outputs": [
                {
                    "internalType": "string",
                    "name": "",
                    "type": "string"
                }
            ],
            "stateMutability": "view",
            "type": "function"
        },
        {
            "inputs": [
                {
                    "internalType": "address",
                    "name": "from",
                    "type": "address"
                },
                {
                    "internalType": "address",
                    "name": "to",
                    "type": "address"
                },
                {
                    "internalType": "uint256",
                    "name": "tokenId",
                    "type": "uint256"
                }
            ],
            "name": "transferFrom",
            "outputs": [],
            "stateMutability": "nonpayable",
            "type": "function"
        }
    ],
    "bytecode": "0x60806040523480156200001157600080fd5b506040516200430b3803806200430b833981810160405281019062000037919062000336565b818181600090805190602001906200005192919062000214565b5080600190805190602001906200006a92919062000214565b505050620000916000801b620000856200009960201b60201c565b620000a160201b60201c565b505062000519565b600033905090565b620000b38282620000b760201b60201c565b5050565b620000c98282620001a960201b60201c565b620001a55760016006600084815260200190815260200160002060000160008373ffffffffffffffffffffffffffffffffffffffff1673ffffffffffffffffffffffffffffffffffffffff16815260200190815260200160002060006101000a81548160ff0219169083151502179055506200014a6200009960201b60201c565b73ffffffffffffffffffffffffffffffffffffffff168173ffffffffffffffffffffffffffffffffffffffff16837f2f8788117e7eff1d82e926ec794901d17c78024a50270940304540a733656f0d60405160405180910390a45b5050565b60006006600084815260200190815260200160002060000160008373ffffffffffffffffffffffffffffffffffffffff1673ffffffffffffffffffffffffffffffffffffffff16815260200190815260200160002060009054906101000a900460ff16905092915050565b82805462000222906200043e565b90600052602060002090601f01602090048101928262000246576000855562000292565b82601f106200026157805160ff191683800117855562000292565b8280016001018555821562000292579182015b828111156200029157825182559160200191906001019062000274565b5b509050620002a19190620002a5565b5090565b5b80821115620002c0576000816000905550600101620002a6565b5090565b6000620002db620002d584620003d2565b620003a9565b905082815260208101848484011115620002f457600080fd5b6200030184828562000408565b509392505050565b600082601f8301126200031b57600080fd5b81516200032d848260208601620002c4565b91505092915050565b600080604083850312156200034a57600080fd5b600083015167ffffffffffffffff8111156200036557600080fd5b620003738582860162000309565b925050602083015167ffffffffffffffff8111156200039157600080fd5b6200039f8582860162000309565b9150509250929050565b6000620003b5620003c8565b9050620003c3828262000474565b919050565b6000604051905090565b600067ffffffffffffffff821115620003f057620003ef620004d9565b5b620003fb8262000508565b9050602081019050919050565b60005b83811015620004285780820151818401526020810190506200040b565b8381111562000438576000848401525b50505050565b600060028204905060018216806200045757607f821691505b602082108114156200046e576200046d620004aa565b5b50919050565b6200047f8262000508565b810181811067ffffffffffffffff82111715620004a157620004a0620004d9565b5b80604052505050565b7f4e487b7100000000000000000000000000000000000000000000000000000000600052602260045260246000fd5b7f4e487b7100000000000000000000000000000000000000000000000000000000600052604160045260246000fd5b6000601f19601f8301169050919050565b613de280620005296000396000f3fe608060405234801561001057600080fd5b506004361061012c5760003560e01c80636352211e116100ad578063a22cb46511610071578063a22cb46514610353578063b88d4fde1461036f578063c87b56dd1461038b578063d547741f146103bb578063e985e9c5146103d75761012c565b80636352211e1461028757806370a08231146102b757806391d14854146102e757806395d89b4114610317578063a217fddf146103355761012c565b806323b872dd116100f457806323b872dd146101e7578063248a9ca3146102035780632f2ff15d1461023357806336568abe1461024f57806342842e0e1461026b5761012c565b806301ffc9a71461013157806306fdde0314610161578063081812fc1461017f578063095ea7b3146101af57806310badf4e146101cb575b600080fd5b61014b60048036038101906101469190612954565b610407565b6040516101589190612f61565b60405180910390f35b610169610419565b6040516101769190612fdc565b60405180910390f35b610199600480360381019061019491906129a6565b6104ab565b6040516101a69190612efa565b60405180910390f35b6101c960048036038101906101c49190612847565b610530565b005b6101e560048036038101906101e09190612883565b610648565b005b61020160048036038101906101fc9190612741565b6106ee565b005b61021d600480360381019061021891906128ef565b61074e565b60405161022a9190612f7c565b60405180910390f35b61024d60048036038101906102489190612918565b61076e565b005b61026960048036038101906102649190612918565b610797565b005b61028560048036038101906102809190612741565b61081a565b005b6102a1600480360381019061029c91906129a6565b61083a565b6040516102ae9190612efa565b60405180910390f35b6102d160048036038101906102cc91906126dc565b6108ec565b6040516102de919061329e565b60405180910390f35b61030160048036038101906102fc9190612918565b6109a4565b60405161030e9190612f61565b60405180910390f35b61031f610a0f565b60405161032c9190612fdc565b60405180910390f35b61033d610aa1565b60405161034a9190612f7c565b60405180910390f35b61036d6004803603810190610368919061280b565b610aa8565b005b61038960048036038101906103849190612790565b610abe565b005b6103a560048036038101906103a091906129a6565b610b20565b6040516103b29190612fdc565b60405180910390f35b6103d560048036038101906103d09190612918565b610bc7565b005b6103f160048036038101906103ec9190612705565b610bf0565b6040516103fe9190612f61565b60405180910390f35b600061041282610c84565b9050919050565b6060600080546104289061355e565b80601f01602080910402602001604051908101604052809291908181526020018280546104549061355e565b80156104a15780601f10610476576101008083540402835291602001916104a1565b820191906000526020600020905b81548152906001019060200180831161048457829003601f168201915b5050505050905090565b60006104b682610cfe565b6104f5576040517f08c379a00000000000000000000000000000000000000000000000000000000081526004016104ec906131fe565b60405180910390fd5b6004600083815260200190815260200160002060009054906101000a900473ffffffffffffffffffffffffffffffffffffffff169050919050565b600061053b8261083a565b90508073ffffffffffffffffffffffffffffffffffffffff168373ffffffffffffffffffffffffffffffffffffffff1614156105ac576040517f08c379a00000000000000000000000000000000000000000000000000000000081526004016105a39061323e565b60405180910390fd5b8073ffffffffffffffffffffffffffffffffffffffff166105cb610d6a565b73ffffffffffffffffffffffffffffffffffffffff1614806105fa57506105f9816105f4610d6a565b610bf0565b5b610639576040517f08c379a00000000000000000000000000000000000000000000000000000000081526004016106309061315e565b60405180910390fd5b6106438383610d72565b505050565b61069f6106558585610e2b565b83838080601f016020809104026020016040519081016040528093929190818152602001838380828437600081840152601f19601f82011690508083019250505050505050610e66565b6106de576040517f08c379a00000000000000000000000000000000000000000000000000000000081526004016106d5906130fe565b60405180910390fd5b6106e88484610e86565b50505050565b6106ff6106f9610d6a565b82610ea4565b61073e576040517f08c379a00000000000000000000000000000000000000000000000000000000081526004016107359061325e565b60405180910390fd5b610749838383610f82565b505050565b600060066000838152602001908152602001600020600101549050919050565b6107778261074e565b61078881610783610d6a565b6111e9565b6107928383611286565b505050565b61079f610d6a565b73ffffffffffffffffffffffffffffffffffffffff168173ffffffffffffffffffffffffffffffffffffffff161461080c576040517f08c379a00000000000000000000000000000000000000000000000000000000081526004016108039061327e565b60405180910390fd5b6108168282611367565b5050565b61083583838360405180602001604052806000815250610abe565b505050565b6000806002600084815260200190815260200160002060009054906101000a900473ffffffffffffffffffffffffffffffffffffffff169050600073ffffffffffffffffffffffffffffffffffffffff168173ffffffffffffffffffffffffffffffffffffffff1614156108e3576040517f08c379a00000000000000000000000000000000000000000000000000000000081526004016108da9061319e565b60405180910390fd5b80915050919050565b60008073ffffffffffffffffffffffffffffffffffffffff168273ffffffffffffffffffffffffffffffffffffffff16141561095d576040517f08c379a00000000000000000000000000000000000000000000000000000000081526004016109549061317e565b60405180910390fd5b600360008373ffffffffffffffffffffffffffffffffffffffff1673ffffffffffffffffffffffffffffffffffffffff168152602001908152602001600020549050919050565b60006006600084815260200190815260200160002060000160008373ffffffffffffffffffffffffffffffffffffffff1673ffffffffffffffffffffffffffffffffffffffff16815260200190815260200160002060009054906101000a900460ff16905092915050565b606060018054610a1e9061355e565b80601f0160208091040260200160405190810160405280929190818152602001828054610a4a9061355e565b8015610a975780601f10610a6c57610100808354040283529160200191610a97565b820191906000526020600020905b815481529060010190602001808311610a7a57829003601f168201915b5050505050905090565b6000801b81565b610aba610ab3610d6a565b8383611449565b5050565b610acf610ac9610d6a565b83610ea4565b610b0e576040517f08c379a0000000000000000000000000000000000000000000000000000000008152600401610b059061325e565b60405180910390fd5b610b1a848484846115b6565b50505050565b6060610b2b82610cfe565b610b6a576040517f08c379a0000000000000000000000000000000000000000000000000000000008152600401610b619061321e565b60405180910390fd5b6000610b74611612565b90506000815111610b945760405180602001604052806000815250610bbf565b80610b9e84611629565b604051602001610baf929190612e4a565b6040516020818303038152906040525b915050919050565b610bd08261074e565b610be181610bdc610d6a565b6111e9565b610beb8383611367565b505050565b6000600560008473ffffffffffffffffffffffffffffffffffffffff1673ffffffffffffffffffffffffffffffffffffffff16815260200190815260200160002060008373ffffffffffffffffffffffffffffffffffffffff1673ffffffffffffffffffffffffffffffffffffffff16815260200190815260200160002060009054906101000a900460ff16905092915050565b60007f7965db0b000000000000000000000000000000000000000000000000000000007bffffffffffffffffffffffffffffffffffffffffffffffffffffffff1916827bffffffffffffffffffffffffffffffffffffffffffffffffffffffff19161480610cf75750610cf6826117d6565b5b9050919050565b60008073ffffffffffffffffffffffffffffffffffffffff166002600084815260200190815260200160002060009054906101000a900473ffffffffffffffffffffffffffffffffffffffff1673ffffffffffffffffffffffffffffffffffffffff1614159050919050565b600033905090565b816004600083815260200190815260200160002060006101000a81548173ffffffffffffffffffffffffffffffffffffffff021916908373ffffffffffffffffffffffffffffffffffffffff160217905550808273ffffffffffffffffffffffffffffffffffffffff16610de58361083a565b73ffffffffffffffffffffffffffffffffffffffff167f8c5be1e5ebec7d5bd14f71427d1e84f3dd0314c0f7b2291e5b200ac8c7c3b92560405160405180910390a45050565b6000610e5e8284604051602001610e43929190612ece565b604051602081830303815290604052805190602001206118b8565b905092915050565b6000610e7e6000801b610e7985856118e8565b6109a4565b905092915050565b610ea082826040518060200160405280600081525061190f565b5050565b6000610eaf82610cfe565b610eee576040517f08c379a0000000000000000000000000000000000000000000000000000000008152600401610ee59061313e565b60405180910390fd5b6000610ef98361083a565b90508073ffffffffffffffffffffffffffffffffffffffff168473ffffffffffffffffffffffffffffffffffffffff161480610f6857508373ffffffffffffffffffffffffffffffffffffffff16610f50846104ab565b73ffffffffffffffffffffffffffffffffffffffff16145b80610f795750610f788185610bf0565b5b91505092915050565b8273ffffffffffffffffffffffffffffffffffffffff16610fa28261083a565b73ffffffffffffffffffffffffffffffffffffffff1614610ff8576040517f08c379a0000000000000000000000000000000000000000000000000000000008152600401610fef9061307e565b60405180910390fd5b600073ffffffffffffffffffffffffffffffffffffffff168273ffffffffffffffffffffffffffffffffffffffff161415611068576040517f08c379a000000000000000000000000000000000000000000000000000000000815260040161105f906130be565b60405180910390fd5b61107383838361196a565b61107e600082610d72565b6001600360008573ffffffffffffffffffffffffffffffffffffffff1673ffffffffffffffffffffffffffffffffffffffff16815260200190815260200160002060008282546110ce9190613433565b925050819055506001600360008473ffffffffffffffffffffffffffffffffffffffff1673ffffffffffffffffffffffffffffffffffffffff16815260200190815260200160002060008282546111259190613352565b92505081905550816002600083815260200190815260200160002060006101000a81548173ffffffffffffffffffffffffffffffffffffffff021916908373ffffffffffffffffffffffffffffffffffffffff160217905550808273ffffffffffffffffffffffffffffffffffffffff168473ffffffffffffffffffffffffffffffffffffffff167fddf252ad1be2c89b69c2b068fc378daa952ba7f163c4a11628f55a4df523b3ef60405160405180910390a46111e483838361196f565b505050565b6111f382826109a4565b611282576112188173ffffffffffffffffffffffffffffffffffffffff166014611974565b6112268360001c6020611974565b604051602001611237929190612e94565b6040516020818303038152906040526040517f08c379a00000000000000000000000000000000000000000000000000000000081526004016112799190612fdc565b60405180910390fd5b5050565b61129082826109a4565b6113635760016006600084815260200190815260200160002060000160008373ffffffffffffffffffffffffffffffffffffffff1673ffffffffffffffffffffffffffffffffffffffff16815260200190815260200160002060006101000a81548160ff021916908315150217905550611308610d6a565b73ffffffffffffffffffffffffffffffffffffffff168173ffffffffffffffffffffffffffffffffffffffff16837f2f8788117e7eff1d82e926ec794901d17c78024a50270940304540a733656f0d60405160405180910390a45b5050565b61137182826109a4565b156114455760006006600084815260200190815260200160002060000160008373ffffffffffffffffffffffffffffffffffffffff1673ffffffffffffffffffffffffffffffffffffffff16815260200190815260200160002060006101000a81548160ff0219169083151502179055506113ea610d6a565b73ffffffffffffffffffffffffffffffffffffffff168173ffffffffffffffffffffffffffffffffffffffff16837ff6391f5c32d9c69d2a47ea670b442974b53935d1edc7fd64eb21e047a839171b60405160405180910390a45b5050565b8173ffffffffffffffffffffffffffffffffffffffff168373ffffffffffffffffffffffffffffffffffffffff1614156114b8576040517f08c379a00000000000000000000000000000000000000000000000000000000081526004016114af906130de565b60405180910390fd5b80600560008573ffffffffffffffffffffffffffffffffffffffff1673ffffffffffffffffffffffffffffffffffffffff16815260200190815260200160002060008473ffffffffffffffffffffffffffffffffffffffff1673ffffffffffffffffffffffffffffffffffffffff16815260200190815260200160002060006101000a81548160ff0219169083151502179055508173ffffffffffffffffffffffffffffffffffffffff168373ffffffffffffffffffffffffffffffffffffffff167f17307eab39ab6107e8899845ad3d59bd9653f200f220920489ca2b5937696c31836040516115a99190612f61565b60405180910390a3505050565b6115c1848484610f82565b6115cd84848484611c6e565b61160c576040517f08c379a00000000000000000000000000000000000000000000000000000000081526004016116039061305e565b60405180910390fd5b50505050565b606060405180602001604052806000815250905090565b60606000821415611671576040518060400160405280600181526020017f300000000000000000000000000000000000000000000000000000000000000081525090506117d1565b600082905060005b600082146116a357808061168c906135c1565b915050600a8261169c91906133a8565b9150611679565b60008167ffffffffffffffff8111156116e5577f4e487b7100000000000000000000000000000000000000000000000000000000600052604160045260246000fd5b6040519080825280601f01601f1916602001820160405280156117175781602001600182028036833780820191505090505b5090505b600085146117ca576001826117309190613433565b9150600a8561173f9190613642565b603061174b9190613352565b60f81b818381518110611787577f4e487b7100000000000000000000000000000000000000000000000000000000600052603260045260246000fd5b60200101907effffffffffffffffffffffffffffffffffffffffffffffffffffffffffffff1916908160001a905350600a856117c391906133a8565b945061171b565b8093505050505b919050565b60007f80ac58cd000000000000000000000000000000000000000000000000000000007bffffffffffffffffffffffffffffffffffffffffffffffffffffffff1916827bffffffffffffffffffffffffffffffffffffffffffffffffffffffff191614806118a157507f5b5e139f000000000000000000000000000000000000000000000000000000007bffffffffffffffffffffffffffffffffffffffffffffffffffffffff1916827bffffffffffffffffffffffffffffffffffffffffffffffffffffffff1916145b806118b157506118b082611e05565b5b9050919050565b6000816040516020016118cb9190612e6e565b604051602081830303815290604052805190602001209050919050565b60008060006118f78585611e6f565b9150915061190481611ef2565b819250505092915050565b6119198383612243565b6119266000848484611c6e565b611965576040517f08c379a000000000000000000000000000000000000000000000000000000000815260040161195c9061305e565b60405180910390fd5b505050565b505050565b505050565b60606000600283600261198791906133d9565b6119919190613352565b67ffffffffffffffff8111156119d0577f4e487b7100000000000000000000000000000000000000000000000000000000600052604160045260246000fd5b6040519080825280601f01601f191660200182016040528015611a025781602001600182028036833780820191505090505b5090507f300000000000000000000000000000000000000000000000000000000000000081600081518110611a60577f4e487b7100000000000000000000000000000000000000000000000000000000600052603260045260246000fd5b60200101907effffffffffffffffffffffffffffffffffffffffffffffffffffffffffffff1916908160001a9053507f780000000000000000000000000000000000000000000000000000000000000081600181518110611aea577f4e487b7100000000000000000000000000000000000000000000000000000000600052603260045260246000fd5b60200101907effffffffffffffffffffffffffffffffffffffffffffffffffffffffffffff1916908160001a90535060006001846002611b2a91906133d9565b611b349190613352565b90505b6001811115611c20577f3031323334353637383961626364656600000000000000000000000000000000600f861660108110611b9c577f4e487b7100000000000000000000000000000000000000000000000000000000600052603260045260246000fd5b1a60f81b828281518110611bd9577f4e487b7100000000000000000000000000000000000000000000000000000000600052603260045260246000fd5b60200101907effffffffffffffffffffffffffffffffffffffffffffffffffffffffffffff1916908160001a905350600485901c945080611c1990613534565b9050611b37565b5060008414611c64576040517f08c379a0000000000000000000000000000000000000000000000000000000008152600401611c5b9061301e565b60405180910390fd5b8091505092915050565b6000611c8f8473ffffffffffffffffffffffffffffffffffffffff1661241d565b15611df8578373ffffffffffffffffffffffffffffffffffffffff1663150b7a02611cb8610d6a565b8786866040518563ffffffff1660e01b8152600401611cda9493929190612f15565b602060405180830381600087803b158015611cf457600080fd5b505af1925050508015611d2557506040513d601f19601f82011682018060405250810190611d22919061297d565b60015b611da8573d8060008114611d55576040519150601f19603f3d011682016040523d82523d6000602084013e611d5a565b606091505b50600081511415611da0576040517f08c379a0000000000000000000000000000000000000000000000000000000008152600401611d979061305e565b60405180910390fd5b805181602001fd5b63150b7a0260e01b7bffffffffffffffffffffffffffffffffffffffffffffffffffffffff1916817bffffffffffffffffffffffffffffffffffffffffffffffffffffffff191614915050611dfd565b600190505b949350505050565b60007f01ffc9a7000000000000000000000000000000000000000000000000000000007bffffffffffffffffffffffffffffffffffffffffffffffffffffffff1916827bffffffffffffffffffffffffffffffffffffffffffffffffffffffff1916149050919050565b600080604183511415611eb15760008060006020860151925060408601519150606086015160001a9050611ea587828585612440565b94509450505050611eeb565b604083511415611ee2576000806020850151915060408501519050611ed786838361254d565b935093505050611eeb565b60006002915091505b9250929050565b60006004811115611f2c577f4e487b7100000000000000000000000000000000000000000000000000000000600052602160045260246000fd5b816004811115611f65577f4e487b7100000000000000000000000000000000000000000000000000000000600052602160045260246000fd5b1415611f7057612240565b60016004811115611faa577f4e487b7100000000000000000000000000000000000000000000000000000000600052602160045260246000fd5b816004811115611fe3577f4e487b7100000000000000000000000000000000000000000000000000000000600052602160045260246000fd5b1415612024576040517f08c379a000000000000000000000000000000000000000000000000000000000815260040161201b90612ffe565b60405180910390fd5b6002600481111561205e577f4e487b7100000000000000000000000000000000000000000000000000000000600052602160045260246000fd5b816004811115612097577f4e487b7100000000000000000000000000000000000000000000000000000000600052602160045260246000fd5b14156120d8576040517f08c379a00000000000000000000000000000000000000000000000000000000081526004016120cf9061303e565b60405180910390fd5b60036004811115612112577f4e487b7100000000000000000000000000000000000000000000000000000000600052602160045260246000fd5b81600481111561214b577f4e487b7100000000000000000000000000000000000000000000000000000000600052602160045260246000fd5b141561218c576040517f08c379a00000000000000000000000000000000000000000000000000000000081526004016121839061311e565b60405180910390fd5b6004808111156121c5577f4e487b7100000000000000000000000000000000000000000000000000000000600052602160045260246000fd5b8160048111156121fe577f4e487b7100000000000000000000000000000000000000000000000000000000600052602160045260246000fd5b141561223f576040517f08c379a0000000000000000000000000000000000000000000000000000000008152600401612236906131be565b60405180910390fd5b5b50565b600073ffffffffffffffffffffffffffffffffffffffff168273ffffffffffffffffffffffffffffffffffffffff1614156122b3576040517f08c379a00000000000000000000000000000000000000000000000000000000081526004016122aa906131de565b60405180910390fd5b6122bc81610cfe565b156122fc576040517f08c379a00000000000000000000000000000000000000000000000000000000081526004016122f39061309e565b60405180910390fd5b6123086000838361196a565b6001600360008473ffffffffffffffffffffffffffffffffffffffff1673ffffffffffffffffffffffffffffffffffffffff16815260200190815260200160002060008282546123589190613352565b92505081905550816002600083815260200190815260200160002060006101000a81548173ffffffffffffffffffffffffffffffffffffffff021916908373ffffffffffffffffffffffffffffffffffffffff160217905550808273ffffffffffffffffffffffffffffffffffffffff16600073ffffffffffffffffffffffffffffffffffffffff167fddf252ad1be2c89b69c2b068fc378daa952ba7f163c4a11628f55a4df523b3ef60405160405180910390a46124196000838361196f565b5050565b6000808273ffffffffffffffffffffffffffffffffffffffff163b119050919050565b6000807f7fffffffffffffffffffffffffffffff5d576e7357a4501ddfe92f46681b20a08360001c111561247b576000600391509150612544565b601b8560ff16141580156124935750601c8560ff1614155b156124a5576000600491509150612544565b6000600187878787604051600081526020016040526040516124ca9493929190612f97565b6020604051602081039080840390855afa1580156124ec573d6000803e3d6000fd5b505050602060405103519050600073ffffffffffffffffffffffffffffffffffffffff168173ffffffffffffffffffffffffffffffffffffffff16141561253b57600060019250925050612544565b80600092509250505b94509492505050565b60008060007f7fffffffffffffffffffffffffffffffffffffffffffffffffffffffffffffff60001b841690506000601b60ff8660001c901c6125909190613352565b905061259e87828885612440565b935093505050935093915050565b60006125bf6125ba846132de565b6132b9565b9050828152602081018484840111156125d757600080fd5b6125e28482856134f2565b509392505050565b6000813590506125f981613d39565b92915050565b60008135905061260e81613d50565b92915050565b60008135905061262381613d67565b92915050565b60008135905061263881613d7e565b92915050565b60008151905061264d81613d7e565b92915050565b60008083601f84011261266557600080fd5b8235905067ffffffffffffffff81111561267e57600080fd5b60208301915083600182028301111561269657600080fd5b9250929050565b600082601f8301126126ae57600080fd5b81356126be8482602086016125ac565b91505092915050565b6000813590506126d681613d95565b92915050565b6000602082840312156126ee57600080fd5b60006126fc848285016125ea565b91505092915050565b6000806040838503121561271857600080fd5b6000612726858286016125ea565b9250506020612737858286016125ea565b9150509250929050565b60008060006060848603121561275657600080fd5b6000612764868287016125ea565b9350506020612775868287016125ea565b9250506040612786868287016126c7565b9150509250925092565b600080600080608085870312156127a657600080fd5b60006127b4878288016125ea565b94505060206127c5878288016125ea565b93505060406127d6878288016126c7565b925050606085013567ffffffffffffffff8111156127f357600080fd5b6127ff8782880161269d565b91505092959194509250565b6000806040838503121561281e57600080fd5b600061282c858286016125ea565b925050602061283d858286016125ff565b9150509250929050565b6000806040838503121561285a57600080fd5b6000612868858286016125ea565b9250506020612879858286016126c7565b9150509250929050565b6000806000806060858703121561289957600080fd5b60006128a7878288016125ea565b94505060206128b8878288016126c7565b935050604085013567ffffffffffffffff8111156128d557600080fd5b6128e187828801612653565b925092505092959194509250565b60006020828403121561290157600080fd5b600061290f84828501612614565b91505092915050565b6000806040838503121561292b57600080fd5b600061293985828601612614565b925050602061294a858286016125ea565b9150509250929050565b60006020828403121561296657600080fd5b600061297484828501612629565b91505092915050565b60006020828403121561298f57600080fd5b600061299d8482850161263e565b91505092915050565b6000602082840312156129b857600080fd5b60006129c6848285016126c7565b91505092915050565b6129d881613467565b82525050565b6129ef6129ea82613467565b61360a565b82525050565b6129fe81613479565b82525050565b612a0d81613485565b82525050565b612a24612a1f82613485565b61361c565b82525050565b6000612a358261330f565b612a3f8185613325565b9350612a4f818560208601613501565b612a588161372f565b840191505092915050565b6000612a6e8261331a565b612a788185613336565b9350612a88818560208601613501565b612a918161372f565b840191505092915050565b6000612aa78261331a565b612ab18185613347565b9350612ac1818560208601613501565b80840191505092915050565b6000612ada601883613336565b9150612ae58261374d565b602082019050919050565b6000612afd602083613336565b9150612b0882613776565b602082019050919050565b6000612b20601f83613336565b9150612b2b8261379f565b602082019050919050565b6000612b43601c83613347565b9150612b4e826137c8565b601c82019050919050565b6000612b66603283613336565b9150612b71826137f1565b604082019050919050565b6000612b89602583613336565b9150612b9482613840565b604082019050919050565b6000612bac601c83613336565b9150612bb78261388f565b602082019050919050565b6000612bcf602483613336565b9150612bda826138b8565b604082019050919050565b6000612bf2601983613336565b9150612bfd82613907565b602082019050919050565b6000612c15601183613336565b9150612c2082613930565b602082019050919050565b6000612c38602283613336565b9150612c4382613959565b604082019050919050565b6000612c5b602c83613336565b9150612c66826139a8565b604082019050919050565b6000612c7e603883613336565b9150612c89826139f7565b604082019050919050565b6000612ca1602a83613336565b9150612cac82613a46565b604082019050919050565b6000612cc4602983613336565b9150612ccf82613a95565b604082019050919050565b6000612ce7602283613336565b9150612cf282613ae4565b604082019050919050565b6000612d0a602083613336565b9150612d1582613b33565b602082019050919050565b6000612d2d602c83613336565b9150612d3882613b5c565b604082019050919050565b6000612d50602f83613336565b9150612d5b82613bab565b604082019050919050565b6000612d73602183613336565b9150612d7e82613bfa565b604082019050919050565b6000612d96603183613336565b9150612da182613c49565b604082019050919050565b6000612db9601783613347565b9150612dc482613c98565b601782019050919050565b6000612ddc601183613347565b9150612de782613cc1565b601182019050919050565b6000612dff602f83613336565b9150612e0a82613cea565b604082019050919050565b612e1e816134db565b82525050565b612e35612e30826134db565b613638565b82525050565b612e44816134e5565b82525050565b6000612e568285612a9c565b9150612e628284612a9c565b91508190509392505050565b6000612e7982612b36565b9150612e858284612a13565b60208201915081905092915050565b6000612e9f82612dac565b9150612eab8285612a9c565b9150612eb682612dcf565b9150612ec28284612a9c565b91508190509392505050565b6000612eda8285612e24565b602082019150612eea82846129de565b6014820191508190509392505050565b6000602082019050612f0f60008301846129cf565b92915050565b6000608082019050612f2a60008301876129cf565b612f3760208301866129cf565b612f446040830185612e15565b8181036060830152612f568184612a2a565b905095945050505050565b6000602082019050612f7660008301846129f5565b92915050565b6000602082019050612f916000830184612a04565b92915050565b6000608082019050612fac6000830187612a04565b612fb96020830186612e3b565b612fc66040830185612a04565b612fd36060830184612a04565b95945050505050565b60006020820190508181036000830152612ff68184612a63565b905092915050565b6000602082019050818103600083015261301781612acd565b9050919050565b6000602082019050818103600083015261303781612af0565b9050919050565b6000602082019050818103600083015261305781612b13565b9050919050565b6000602082019050818103600083015261307781612b59565b9050919050565b6000602082019050818103600083015261309781612b7c565b9050919050565b600060208201905081810360008301526130b781612b9f565b9050919050565b600060208201905081810360008301526130d781612bc2565b9050919050565b600060208201905081810360008301526130f781612be5565b9050919050565b6000602082019050818103600083015261311781612c08565b9050919050565b6000602082019050818103600083015261313781612c2b565b9050919050565b6000602082019050818103600083015261315781612c4e565b9050919050565b6000602082019050818103600083015261317781612c71565b9050919050565b6000602082019050818103600083015261319781612c94565b9050919050565b600060208201905081810360008301526131b781612cb7565b9050919050565b600060208201905081810360008301526131d781612cda565b9050919050565b600060208201905081810360008301526131f781612cfd565b9050919050565b6000602082019050818103600083015261321781612d20565b9050919050565b6000602082019050818103600083015261323781612d43565b9050919050565b6000602082019050818103600083015261325781612d66565b9050919050565b6000602082019050818103600083015261327781612d89565b9050919050565b6000602082019050818103600083015261329781612df2565b9050919050565b60006020820190506132b36000830184612e15565b92915050565b60006132c36132d4565b90506132cf8282613590565b919050565b6000604051905090565b600067ffffffffffffffff8211156132f9576132f8613700565b5b6133028261372f565b9050602081019050919050565b600081519050919050565b600081519050919050565b600082825260208201905092915050565b600082825260208201905092915050565b600081905092915050565b600061335d826134db565b9150613368836134db565b9250827fffffffffffffffffffffffffffffffffffffffffffffffffffffffffffffffff0382111561339d5761339c613673565b5b828201905092915050565b60006133b3826134db565b91506133be836134db565b9250826133ce576133cd6136a2565b5b828204905092915050565b60006133e4826134db565b91506133ef836134db565b9250817fffffffffffffffffffffffffffffffffffffffffffffffffffffffffffffffff048311821515161561342857613427613673565b5b828202905092915050565b600061343e826134db565b9150613449836134db565b92508282101561345c5761345b613673565b5b828203905092915050565b6000613472826134bb565b9050919050565b60008115159050919050565b6000819050919050565b60007fffffffff0000000000000000000000000000000000000000000000000000000082169050919050565b600073ffffffffffffffffffffffffffffffffffffffff82169050919050565b6000819050919050565b600060ff82169050919050565b82818337600083830152505050565b60005b8381101561351f578082015181840152602081019050613504565b8381111561352e576000848401525b50505050565b600061353f826134db565b9150600082141561355357613552613673565b5b600182039050919050565b6000600282049050600182168061357657607f821691505b6020821081141561358a576135896136d1565b5b50919050565b6135998261372f565b810181811067ffffffffffffffff821117156135b8576135b7613700565b5b80604052505050565b60006135cc826134db565b91507fffffffffffffffffffffffffffffffffffffffffffffffffffffffffffffffff8214156135ff576135fe613673565b5b600182019050919050565b600061361582613626565b9050919050565b6000819050919050565b600061363182613740565b9050919050565b6000819050919050565b600061364d826134db565b9150613658836134db565b925082613668576136676136a2565b5b828206905092915050565b7f4e487b7100000000000000000000000000000000000000000000000000000000600052601160045260246000fd5b7f4e487b7100000000000000000000000000000000000000000000000000000000600052601260045260246000fd5b7f4e487b7100000000000000000000000000000000000000000000000000000000600052602260045260246000fd5b7f4e487b7100000000000000000000000000000000000000000000000000000000600052604160045260246000fd5b6000601f19601f8301169050919050565b60008160601b9050919050565b7f45434453413a20696e76616c6964207369676e61747572650000000000000000600082015250565b7f537472696e67733a20686578206c656e67746820696e73756666696369656e74600082015250565b7f45434453413a20696e76616c6964207369676e6174757265206c656e67746800600082015250565b7f19457468657265756d205369676e6564204d6573736167653a0a333200000000600082015250565b7f4552433732313a207472616e7366657220746f206e6f6e20455243373231526560008201527f63656976657220696d706c656d656e7465720000000000000000000000000000602082015250565b7f4552433732313a207472616e736665722066726f6d20696e636f72726563742060008201527f6f776e6572000000000000000000000000000000000000000000000000000000602082015250565b7f4552433732313a20746f6b656e20616c7265616479206d696e74656400000000600082015250565b7f4552433732313a207472616e7366657220746f20746865207a65726f2061646460008201527f7265737300000000000000000000000000000000000000000000000000000000602082015250565b7f4552433732313a20617070726f766520746f2063616c6c657200000000000000600082015250565b7f496e76616c6964207369676e6174757265000000000000000000000000000000600082015250565b7f45434453413a20696e76616c6964207369676e6174757265202773272076616c60008201527f7565000000000000000000000000000000000000000000000000000000000000602082015250565b7f4552433732313a206f70657261746f7220717565727920666f72206e6f6e657860008201527f697374656e7420746f6b656e0000000000000000000000000000000000000000602082015250565b7f4552433732313a20617070726f76652063616c6c6572206973206e6f74206f7760008201527f6e6572206e6f7220617070726f76656420666f7220616c6c0000000000000000602082015250565b7f4552433732313a2062616c616e636520717565727920666f7220746865207a6560008201527f726f206164647265737300000000000000000000000000000000000000000000602082015250565b7f4552433732313a206f776e657220717565727920666f72206e6f6e657869737460008201527f656e7420746f6b656e0000000000000000000000000000000000000000000000602082015250565b7f45434453413a20696e76616c6964207369676e6174757265202776272076616c60008201527f7565000000000000000000000000000000000000000000000000000000000000602082015250565b7f4552433732313a206d696e7420746f20746865207a65726f2061646472657373600082015250565b7f4552433732313a20617070726f76656420717565727920666f72206e6f6e657860008201527f697374656e7420746f6b656e0000000000000000000000000000000000000000602082015250565b7f4552433732314d657461646174613a2055524920717565727920666f72206e6f60008201527f6e6578697374656e7420746f6b656e0000000000000000000000000000000000602082015250565b7f4552433732313a20617070726f76616c20746f2063757272656e74206f776e6560008201527f7200000000000000000000000000000000000000000000000000000000000000602082015250565b7f4552433732313a207472616e736665722063616c6c6572206973206e6f74206f60008201527f776e6572206e6f7220617070726f766564000000000000000000000000000000602082015250565b7f416363657373436f6e74726f6c3a206163636f756e7420000000000000000000600082015250565b7f206973206d697373696e6720726f6c6520000000000000000000000000000000600082015250565b7f416363657373436f6e74726f6c3a2063616e206f6e6c792072656e6f756e636560008201527f20726f6c657320666f722073656c660000000000000000000000000000000000602082015250565b613d4281613467565b8114613d4d57600080fd5b50565b613d5981613479565b8114613d6457600080fd5b50565b613d7081613485565b8114613d7b57600080fd5b50565b613d878161348f565b8114613d9257600080fd5b50565b613d9e816134db565b8114613da957600080fd5b5056fea2646970667358221220725419a84def220910d558604efe2953c0eccbd0ae2e294af041bebe6327947764736f6c63430008010033",
    "linkReferences": {},
    "deployedLinkReferences": {}
}